:100000000C945C000C9493000C94BA000C9479004E
:100010000C9479000C9479000C9479000C9479007C
:100020000C9479000C9479000C9479000C9479006C
:100030000C9479000C9479000C9479000C9479005C
:100040000C94E2000C9479000C9479000C947900E3
:100050000C9479000C9479000C9479000C9479003C
:100060000C9479000C947900000000080002010053
:100070000003040700000000000000000102040863
:100080001020408001020408102001020408102002
:10009000040404040404040402020202020203032E
:1000A0000303030300000000250028002B000000CC
:1000B0000000240027002A0011241FBECFEFD8E043
:1000C000DEBFCDBF11E0A0E0B1E0E4ECF5E002C09E
:1000D00005900D92A630B107D9F721E0A6E0B1E076
:1000E00001C01D92AF30B207E1F70E94D1020C941B
:1000F000E0020C94000061E089E00C9466028EE05E
:100100000E94C50197FD0396BC017595679575958D
:10011000679589E00E94E0016AE070E080E090E08D
:100120000C94510108951F920F920FB60F92112453
:100130002F933F934F935F936F937F938F939F93EF
:10014000AF93BF93EF93FF93E0910001F091010112
:100150000995FF91EF91BF91AF919F918F917F9101
:100160006F915F914F913F912F910F900FBE0F9024
:100170001F9018951F920F920FB60F9211242F9374
:100180003F934F935F936F937F938F939F93AF931F
:10019000BF93EF93FF93E0910201F0910301099562
:1001A000FF91EF91BF91AF919F918F917F916F914F
:1001B0005F914F913F912F910F900FBE0F901F9025
:1001C000189508951F920F920FB60F9211242F9336
:1001D0003F938F939F93AF93BF938091070190912B
:1001E0000801A0910901B0910A013091060123E0B4
:1001F000230F2D3758F50196A11DB11D209306013F
:100200008093070190930801A0930901B0930A011C
:1002100080910B0190910C01A0910D01B0910E0104
:100220000196A11DB11D80930B0190930C01A09329
:100230000D01B0930E01BF91AF919F918F913F91AE
:100240002F910F900FBE0F901F90189526E8230F47
:100250000296A11DB11DD2CF3FB7F89480910B013A
:1002600090910C01A0910D01B0910E0126B5A89BB3
:1002700005C02F3F19F00196A11DB11D3FBFBA2F38
:10028000A92F982F8827BC01CD01620F711D811DF8
:10029000911D42E0660F771F881F991F4A95D1F77D
:1002A00008958F929F92AF92BF92CF92DF92EF927A
:1002B000FF926B017C010E942C014B015C01C11477
:1002C000D104E104F104E9F00E94E1000E942C0154
:1002D000681979098A099B09683E7340810591056F
:1002E00070F321E0C21AD108E108F10888EE880E07
:1002F00083E0981EA11CB11CC114D104E104F104D7
:1003000029F7FF90EF90DF90CF90BF90AF909F9034
:100310008F900895789484B5826084BD84B581609F
:1003200084BD85B5826085BD85B5816085BDEEE6FD
:10033000F0E0808181608083E1E8F0E010828081DC
:1003400082608083808181608083E0E8F0E080814A
:1003500081608083E1EBF0E0808184608083E0EB6A
:10036000F0E0808181608083EAE7F0E08081846052
:1003700080838081826080838081816080838081AE
:10038000806880831092C10008958E3008F08E50EE
:100390002091040190E4299F900111248770822B01
:1003A00080937C0080917A00806480937A008091B1
:1003B0007A0086FDFCCF80917800909179000895B5
:1003C0001F93CF93DF93182FEB0161E00E94660229
:1003D000209739F460E0812FDF91CF911F910C9429
:1003E000A202CF3FD10511F461E0F5CFE12FF0E09B
:1003F000E859FF4FE491E33031F140F4E130B1F0DE
:10040000E230E1F0C038D1057CF7E4CFE73029F1E4
:10041000E83059F1E430B1F7809180008062809338
:100420008000D0938B00C0938A0004C084B580689C
:1004300084BDC7BDDF91CF911F91089584B58062BF
:1004400084BDC8BDF7CF8091800080688093800014
:10045000D0938900C0938800EDCF8091B000806870
:100460008093B000C093B300E5CF8091B00080626C
:100470008093B000C093B400DDCF833081F028F4C6
:10048000813099F08230A9F008958730A9F0883042
:10049000C9F08430B1F4809180008F7D03C08091D9
:1004A00080008F7780938000089584B58F7784BD16
:1004B000089584B58F7DFBCF8091B0008F778093B6
:1004C000B00008958091B0008F7DF9CFCF93DF9376
:1004D00090E0FC01E458FF4F249180579F4FFC01AE
:1004E00084918823C9F090E0880F991FFC01E255A0
:1004F000FF4FA591B491FC01EC55FF4FC591D491EC
:1005000061110DC09FB7F8948C91209582238C9334
:100510008881282328839FBFDF91CF91089562307F
:1005200051F49FB7F8943C91822F809583238C934C
:10053000E8812E2BEFCF8FB7F894EC912E2B2C93D4
:100540008FBFEACF1F93CF93DF93282F30E0F901BD
:10055000E859FF4F8491F901E458FF4FD491F90114
:10056000E057FF4FC491CC23A9F0162F81110E94B0
:100570003D02EC2FF0E0EE0FFF1FEC55FF4FA59171
:10058000B4918FB7F894EC91111108C0D095DE2387
:10059000DC938FBFDF91CF911F910895DE2BF8CFB1
:1005A00008950E948A010E94D0020E947B00C0E050
:1005B000D0E00E947F002097E1F30E940000F9CF75
:0405C000F894FFCFDD
:0605C4009200920001000C
:00000001FF
